{
  "_format": "hh-sol-artifact-1",
  "contractName": "DAppsNft",
  "sourceName": "contracts/NFT.sol",
  "abi": [
    {
      "inputs": [
        {
          "internalType": "address",
          "name": "defaultAdmin",
          "type": "address"
        },
        {
          "internalType": "address",
          "name": "pauser",
          "type": "address"
        }
      ],
      "stateMutability": "nonpayable",
      "type": "constructor"
    },
    {
      "inputs": [],
      "name": "AccessControlBadConfirmation",
      "type": "error"
    },
    {
      "inputs": [
        {
          "internalType": "address",
          "name": "account",
          "type": "address"
        },
        {
          "internalType": "bytes32",
          "name": "neededRole",
          "type": "bytes32"
        }
      ],
      "name": "AccessControlUnauthorizedAccount",
      "type": "error"
    },
    {
      "inputs": [
        {
          "internalType": "address",
          "name": "sender",
          "type": "address"
        },
        {
          "internalType": "uint256",
          "name": "tokenId",
          "type": "uint256"
        },
        {
          "internalType": "address",
          "name": "owner",
          "type": "address"
        }
      ],
      "name": "ERC721IncorrectOwner",
      "type": "error"
    },
    {
      "inputs": [
        {
          "internalType": "address",
          "name": "operator",
          "type": "address"
        },
        {
          "internalType": "uint256",
          "name": "tokenId",
          "type": "uint256"
        }
      ],
      "name": "ERC721InsufficientApproval",
      "type": "error"
    },
    {
      "inputs": [
        {
          "internalType": "address",
          "name": "approver",
          "type": "address"
        }
      ],
      "name": "ERC721InvalidApprover",
      "type": "error"
    },
    {
      "inputs": [
        {
          "internalType": "address",
          "name": "operator",
          "type": "address"
        }
      ],
      "name": "ERC721InvalidOperator",
      "type": "error"
    },
    {
      "inputs": [
        {
          "internalType": "address",
          "name": "owner",
          "type": "address"
        }
      ],
      "name": "ERC721InvalidOwner",
      "type": "error"
    },
    {
      "inputs": [
        {
          "internalType": "address",
          "name": "receiver",
          "type": "address"
        }
      ],
      "name": "ERC721InvalidReceiver",
      "type": "error"
    },
    {
      "inputs": [
        {
          "internalType": "address",
          "name": "sender",
          "type": "address"
        }
      ],
      "name": "ERC721InvalidSender",
      "type": "error"
    },
    {
      "inputs": [
        {
          "internalType": "uint256",
          "name": "tokenId",
          "type": "uint256"
        }
      ],
      "name": "ERC721NonexistentToken",
      "type": "error"
    },
    {
      "inputs": [],
      "name": "EnforcedPause",
      "type": "error"
    },
    {
      "inputs": [],
      "name": "ExpectedPause",
      "type": "error"
    },
    {
      "anonymous": false,
      "inputs": [
        {
          "indexed": true,
          "internalType": "address",
          "name": "owner",
          "type": "address"
        },
        {
          "indexed": true,
          "internalType": "address",
          "name": "approved",
          "type": "address"
        },
        {
          "indexed": true,
          "internalType": "uint256",
          "name": "tokenId",
          "type": "uint256"
        }
      ],
      "name": "Approval",
      "type": "event"
    },
    {
      "anonymous": false,
      "inputs": [
        {
          "indexed": true,
          "internalType": "address",
          "name": "owner",
          "type": "address"
        },
        {
          "indexed": true,
          "internalType": "address",
          "name": "operator",
          "type": "address"
        },
        {
          "indexed": false,
          "internalType": "bool",
          "name": "approved",
          "type": "bool"
        }
      ],
      "name": "ApprovalForAll",
      "type": "event"
    },
    {
      "anonymous": false,
      "inputs": [
        {
          "indexed": false,
          "internalType": "uint256",
          "name": "_fromTokenId",
          "type": "uint256"
        },
        {
          "indexed": false,
          "internalType": "uint256",
          "name": "_toTokenId",
          "type": "uint256"
        }
      ],
      "name": "BatchMetadataUpdate",
      "type": "event"
    },
    {
      "anonymous": false,
      "inputs": [
        {
          "indexed": false,
          "internalType": "uint256",
          "name": "_tokenId",
          "type": "uint256"
        }
      ],
      "name": "MetadataUpdate",
      "type": "event"
    },
    {
      "anonymous": false,
      "inputs": [
        {
          "indexed": false,
          "internalType": "address",
          "name": "account",
          "type": "address"
        }
      ],
      "name": "Paused",
      "type": "event"
    },
    {
      "anonymous": false,
      "inputs": [
        {
          "indexed": true,
          "internalType": "bytes32",
          "name": "role",
          "type": "bytes32"
        },
        {
          "indexed": true,
          "internalType": "bytes32",
          "name": "previousAdminRole",
          "type": "bytes32"
        },
        {
          "indexed": true,
          "internalType": "bytes32",
          "name": "newAdminRole",
          "type": "bytes32"
        }
      ],
      "name": "RoleAdminChanged",
      "type": "event"
    },
    {
      "anonymous": false,
      "inputs": [
        {
          "indexed": true,
          "internalType": "bytes32",
          "name": "role",
          "type": "bytes32"
        },
        {
          "indexed": true,
          "internalType": "address",
          "name": "account",
          "type": "address"
        },
        {
          "indexed": true,
          "internalType": "address",
          "name": "sender",
          "type": "address"
        }
      ],
      "name": "RoleGranted",
      "type": "event"
    },
    {
      "anonymous": false,
      "inputs": [
        {
          "indexed": true,
          "internalType": "bytes32",
          "name": "role",
          "type": "bytes32"
        },
        {
          "indexed": true,
          "internalType": "address",
          "name": "account",
          "type": "address"
        },
        {
          "indexed": true,
          "internalType": "address",
          "name": "sender",
          "type": "address"
        }
      ],
      "name": "RoleRevoked",
      "type": "event"
    },
    {
      "anonymous": false,
      "inputs": [
        {
          "indexed": true,
          "internalType": "address",
          "name": "from",
          "type": "address"
        },
        {
          "indexed": true,
          "internalType": "address",
          "name": "to",
          "type": "address"
        },
        {
          "indexed": true,
          "internalType": "uint256",
          "name": "tokenId",
          "type": "uint256"
        }
      ],
      "name": "Transfer",
      "type": "event"
    },
    {
      "anonymous": false,
      "inputs": [
        {
          "indexed": false,
          "internalType": "address",
          "name": "account",
          "type": "address"
        }
      ],
      "name": "Unpaused",
      "type": "event"
    },
    {
      "inputs": [],
      "name": "DEFAULT_ADMIN_ROLE",
      "outputs": [
        {
          "internalType": "bytes32",
          "name": "",
          "type": "bytes32"
        }
      ],
      "stateMutability": "view",
      "type": "function"
    },
    {
      "inputs": [],
      "name": "PAUSER_ROLE",
      "outputs": [
        {
          "internalType": "bytes32",
          "name": "",
          "type": "bytes32"
        }
      ],
      "stateMutability": "view",
      "type": "function"
    },
    {
      "inputs": [
        {
          "internalType": "address",
          "name": "to",
          "type": "address"
        },
        {
          "internalType": "uint256",
          "name": "tokenId",
          "type": "uint256"
        }
      ],
      "name": "approve",
      "outputs": [],
      "stateMutability": "nonpayable",
      "type": "function"
    },
    {
      "inputs": [
        {
          "internalType": "address",
          "name": "owner",
          "type": "address"
        }
      ],
      "name": "balanceOf",
      "outputs": [
        {
          "internalType": "uint256",
          "name": "",
          "type": "uint256"
        }
      ],
      "stateMutability": "view",
      "type": "function"
    },
    {
      "inputs": [
        {
          "internalType": "uint256",
          "name": "tokenId",
          "type": "uint256"
        }
      ],
      "name": "burn",
      "outputs": [],
      "stateMutability": "nonpayable",
      "type": "function"
    },
    {
      "inputs": [
        {
          "internalType": "uint256",
          "name": "tokenId",
          "type": "uint256"
        }
      ],
      "name": "getApproved",
      "outputs": [
        {
          "internalType": "address",
          "name": "",
          "type": "address"
        }
      ],
      "stateMutability": "view",
      "type": "function"
    },
    {
      "inputs": [
        {
          "internalType": "bytes32",
          "name": "role",
          "type": "bytes32"
        }
      ],
      "name": "getRoleAdmin",
      "outputs": [
        {
          "internalType": "bytes32",
          "name": "",
          "type": "bytes32"
        }
      ],
      "stateMutability": "view",
      "type": "function"
    },
    {
      "inputs": [
        {
          "internalType": "bytes32",
          "name": "role",
          "type": "bytes32"
        },
        {
          "internalType": "address",
          "name": "account",
          "type": "address"
        }
      ],
      "name": "grantRole",
      "outputs": [],
      "stateMutability": "nonpayable",
      "type": "function"
    },
    {
      "inputs": [
        {
          "internalType": "bytes32",
          "name": "role",
          "type": "bytes32"
        },
        {
          "internalType": "address",
          "name": "account",
          "type": "address"
        }
      ],
      "name": "hasRole",
      "outputs": [
        {
          "internalType": "bool",
          "name": "",
          "type": "bool"
        }
      ],
      "stateMutability": "view",
      "type": "function"
    },
    {
      "inputs": [
        {
          "internalType": "address",
          "name": "owner",
          "type": "address"
        },
        {
          "internalType": "address",
          "name": "operator",
          "type": "address"
        }
      ],
      "name": "isApprovedForAll",
      "outputs": [
        {
          "internalType": "bool",
          "name": "",
          "type": "bool"
        }
      ],
      "stateMutability": "view",
      "type": "function"
    },
    {
      "inputs": [],
      "name": "name",
      "outputs": [
        {
          "internalType": "string",
          "name": "",
          "type": "string"
        }
      ],
      "stateMutability": "view",
      "type": "function"
    },
    {
      "inputs": [
        {
          "internalType": "uint256",
          "name": "tokenId",
          "type": "uint256"
        }
      ],
      "name": "ownerOf",
      "outputs": [
        {
          "internalType": "address",
          "name": "",
          "type": "address"
        }
      ],
      "stateMutability": "view",
      "type": "function"
    },
    {
      "inputs": [],
      "name": "pause",
      "outputs": [],
      "stateMutability": "nonpayable",
      "type": "function"
    },
    {
      "inputs": [],
      "name": "paused",
      "outputs": [
        {
          "internalType": "bool",
          "name": "",
          "type": "bool"
        }
      ],
      "stateMutability": "view",
      "type": "function"
    },
    {
      "inputs": [
        {
          "internalType": "bytes32",
          "name": "role",
          "type": "bytes32"
        },
        {
          "internalType": "address",
          "name": "callerConfirmation",
          "type": "address"
        }
      ],
      "name": "renounceRole",
      "outputs": [],
      "stateMutability": "nonpayable",
      "type": "function"
    },
    {
      "inputs": [
        {
          "internalType": "bytes32",
          "name": "role",
          "type": "bytes32"
        },
        {
          "internalType": "address",
          "name": "account",
          "type": "address"
        }
      ],
      "name": "revokeRole",
      "outputs": [],
      "stateMutability": "nonpayable",
      "type": "function"
    },
    {
      "inputs": [
        {
          "internalType": "address",
          "name": "to",
          "type": "address"
        },
        {
          "internalType": "string",
          "name": "uri",
          "type": "string"
        }
      ],
      "name": "safeMint",
      "outputs": [
        {
          "internalType": "uint256",
          "name": "",
          "type": "uint256"
        }
      ],
      "stateMutability": "nonpayable",
      "type": "function"
    },
    {
      "inputs": [
        {
          "internalType": "address",
          "name": "from",
          "type": "address"
        },
        {
          "internalType": "address",
          "name": "to",
          "type": "address"
        },
        {
          "internalType": "uint256",
          "name": "tokenId",
          "type": "uint256"
        }
      ],
      "name": "safeTransferFrom",
      "outputs": [],
      "stateMutability": "nonpayable",
      "type": "function"
    },
    {
      "inputs": [
        {
          "internalType": "address",
          "name": "from",
          "type": "address"
        },
        {
          "internalType": "address",
          "name": "to",
          "type": "address"
        },
        {
          "internalType": "uint256",
          "name": "tokenId",
          "type": "uint256"
        },
        {
          "internalType": "bytes",
          "name": "data",
          "type": "bytes"
        }
      ],
      "name": "safeTransferFrom",
      "outputs": [],
      "stateMutability": "nonpayable",
      "type": "function"
    },
    {
      "inputs": [
        {
          "internalType": "address",
          "name": "operator",
          "type": "address"
        },
        {
          "internalType": "bool",
          "name": "approved",
          "type": "bool"
        }
      ],
      "name": "setApprovalForAll",
      "outputs": [],
      "stateMutability": "nonpayable",
      "type": "function"
    },
    {
      "inputs": [
        {
          "internalType": "bytes4",
          "name": "interfaceId",
          "type": "bytes4"
        }
      ],
      "name": "supportsInterface",
      "outputs": [
        {
          "internalType": "bool",
          "name": "",
          "type": "bool"
        }
      ],
      "stateMutability": "view",
      "type": "function"
    },
    {
      "inputs": [],
      "name": "symbol",
      "outputs": [
        {
          "internalType": "string",
          "name": "",
          "type": "string"
        }
      ],
      "stateMutability": "view",
      "type": "function"
    },
    {
      "inputs": [
        {
          "internalType": "uint256",
          "name": "tokenId",
          "type": "uint256"
        }
      ],
      "name": "tokenURI",
      "outputs": [
        {
          "internalType": "string",
          "name": "",
          "type": "string"
        }
      ],
      "stateMutability": "view",
      "type": "function"
    },
    {
      "inputs": [
        {
          "internalType": "address",
          "name": "from",
          "type": "address"
        },
        {
          "internalType": "address",
          "name": "to",
          "type": "address"
        },
        {
          "internalType": "uint256",
          "name": "tokenId",
          "type": "uint256"
        }
      ],
      "name": "transferFrom",
      "outputs": [],
      "stateMutability": "nonpayable",
      "type": "function"
    },
    {
      "inputs": [],
      "name": "unpause",
      "outputs": [],
      "stateMutability": "nonpayable",
      "type": "function"
    }
  ],
  "bytecode": "0x608060405234801561000f575f5ffd5b506040516132b93803806132b9833981810160405281019061003191906102c8565b6040518060400160405280600881526020017f44417070734e66740000000000000000000000000000000000000000000000008152506040518060400160405280600481526020017f444e465400000000000000000000000000000000000000000000000000000000815250815f90816100ab9190610543565b5080600190816100bb9190610543565b5050506100d05f5f1b8361010960201b60201c565b506101017f65d7a28e3265b37a6474929f336521b332c1681b933f6cb9f3376673440d862a8261010960201b60201c565b505050610612565b5f61011a83836101ff60201b60201c565b6101f557600160085f8581526020019081526020015f205f015f8473ffffffffffffffffffffffffffffffffffffffff1673ffffffffffffffffffffffffffffffffffffffff1681526020019081526020015f205f6101000a81548160ff02191690831515021790555061019261026360201b60201c565b73ffffffffffffffffffffffffffffffffffffffff168273ffffffffffffffffffffffffffffffffffffffff16847f2f8788117e7eff1d82e926ec794901d17c78024a50270940304540a733656f0d60405160405180910390a4600190506101f9565b5f90505b92915050565b5f60085f8481526020019081526020015f205f015f8373ffffffffffffffffffffffffffffffffffffffff1673ffffffffffffffffffffffffffffffffffffffff1681526020019081526020015f205f9054906101000a900460ff16905092915050565b5f33905090565b5f5ffd5b5f73ffffffffffffffffffffffffffffffffffffffff82169050919050565b5f6102978261026e565b9050919050565b6102a78161028d565b81146102b1575f5ffd5b50565b5f815190506102c28161029e565b92915050565b5f5f604083850312156102de576102dd61026a565b5b5f6102eb858286016102b4565b92505060206102fc858286016102b4565b9150509250929050565b5f81519050919050565b7f4e487b71000000000000000000000000000000000000000000000000000000005f52604160045260245ffd5b7f4e487b71000000000000000000000000000000000000000000000000000000005f52602260045260245ffd5b5f600282049050600182168061038157607f821691505b6020821081036103945761039361033d565b5b50919050565b5f819050815f5260205f209050919050565b5f6020601f8301049050919050565b5f82821b905092915050565b5f600883026103f67fffffffffffffffffffffffffffffffffffffffffffffffffffffffffffffffff826103bb565b61040086836103bb565b95508019841693508086168417925050509392505050565b5f819050919050565b5f819050919050565b5f61044461043f61043a84610418565b610421565b610418565b9050919050565b5f819050919050565b61045d8361042a565b6104716104698261044b565b8484546103c7565b825550505050565b5f5f905090565b610488610479565b610493818484610454565b505050565b5b818110156104b6576104ab5f82610480565b600181019050610499565b5050565b601f8211156104fb576104cc8161039a565b6104d5846103ac565b810160208510156104e4578190505b6104f86104f0856103ac565b830182610498565b50505b505050565b5f82821c905092915050565b5f61051b5f1984600802610500565b1980831691505092915050565b5f610533838361050c565b9150826002028217905092915050565b61054c82610306565b67ffffffffffffffff81111561056557610564610310565b5b61056f825461036a565b61057a8282856104ba565b5f60209050601f8311600181146105ab575f8415610599578287015190505b6105a38582610528565b86555061060a565b601f1984166105b98661039a565b5f5b828110156105e0578489015182556001820191506020850194506020810190506105bb565b868310156105fd57848901516105f9601f89168261050c565b8355505b6001600288020188555050505b505050505050565b612c9a8061061f5f395ff3fe608060405234801561000f575f5ffd5b5060043610610171575f3560e01c80636352211e116100dc578063a22cb46511610095578063d204c45e1161006f578063d204c45e14610431578063d547741f14610461578063e63ab1e91461047d578063e985e9c51461049b57610171565b8063a22cb465146103c9578063b88d4fde146103e5578063c87b56dd1461040157610171565b80636352211e146102f357806370a08231146103235780638456cb591461035357806391d148541461035d57806395d89b411461038d578063a217fddf146103ab57610171565b80632f2ff15d1161012e5780632f2ff15d1461025b57806336568abe146102775780633f4ba83a1461029357806342842e0e1461029d57806342966c68146102b95780635c975abb146102d557610171565b806301ffc9a71461017557806306fdde03146101a5578063081812fc146101c3578063095ea7b3146101f357806323b872dd1461020f578063248a9ca31461022b575b5f5ffd5b61018f600480360381019061018a919061207f565b6104cb565b60405161019c91906120c4565b60405180910390f35b6101ad6104dc565b6040516101ba919061214d565b60405180910390f35b6101dd60048036038101906101d891906121a0565b61056b565b6040516101ea919061220a565b60405180910390f35b61020d6004803603810190610208919061224d565b610586565b005b6102296004803603810190610224919061228b565b61059c565b005b6102456004803603810190610240919061230e565b61069b565b6040516102529190612348565b60405180910390f35b61027560048036038101906102709190612361565b6106b8565b005b610291600480360381019061028c9190612361565b6106da565b005b61029b610755565b005b6102b760048036038101906102b2919061228b565b61078a565b005b6102d360048036038101906102ce91906121a0565b6107a9565b005b6102dd6107bf565b6040516102ea91906120c4565b60405180910390f35b61030d600480360381019061030891906121a0565b6107d4565b60405161031a919061220a565b60405180910390f35b61033d6004803603810190610338919061239f565b6107e5565b60405161034a91906123d9565b60405180910390f35b61035b61089b565b005b61037760048036038101906103729190612361565b6108d0565b60405161038491906120c4565b60405180910390f35b610395610934565b6040516103a2919061214d565b60405180910390f35b6103b36109c4565b6040516103c09190612348565b60405180910390f35b6103e360048036038101906103de919061241c565b6109ca565b005b6103ff60048036038101906103fa9190612586565b6109e0565b005b61041b600480360381019061041691906121a0565b610a05565b604051610428919061214d565b60405180910390f35b61044b600480360381019061044691906126a4565b610a17565b60405161045891906123d9565b60405180910390f35b61047b60048036038101906104769190612361565b610a4f565b005b610485610a71565b6040516104929190612348565b60405180910390f35b6104b560048036038101906104b091906126fe565b610a95565b6040516104c291906120c4565b60405180910390f35b5f6104d582610b23565b9050919050565b60605f80546104ea90612769565b80601f016020809104026020016040519081016040528092919081815260200182805461051690612769565b80156105615780601f1061053857610100808354040283529160200191610561565b820191905f5260205f20905b81548152906001019060200180831161054457829003601f168201915b5050505050905090565b5f61057582610b9c565b5061057f82610c22565b9050919050565b6105988282610593610c5b565b610c62565b5050565b5f73ffffffffffffffffffffffffffffffffffffffff168273ffffffffffffffffffffffffffffffffffffffff160361060c575f6040517f64a0ae92000000000000000000000000000000000000000000000000000000008152600401610603919061220a565b60405180910390fd5b5f61061f838361061a610c5b565b610c74565b90508373ffffffffffffffffffffffffffffffffffffffff168173ffffffffffffffffffffffffffffffffffffffff1614610695578382826040517f64283d7b00000000000000000000000000000000000000000000000000000000815260040161068c93929190612799565b60405180910390fd5b50505050565b5f60085f8381526020019081526020015f20600101549050919050565b6106c18261069b565b6106ca81610c89565b6106d48383610c9d565b50505050565b6106e2610c5b565b73ffffffffffffffffffffffffffffffffffffffff168173ffffffffffffffffffffffffffffffffffffffff1614610746576040517f6697b23200000000000000000000000000000000000000000000000000000000815260040160405180910390fd5b6107508282610d87565b505050565b7f65d7a28e3265b37a6474929f336521b332c1681b933f6cb9f3376673440d862a61077f81610c89565b610787610e71565b50565b6107a483838360405180602001604052805f8152506109e0565b505050565b6107bb5f826107b6610c5b565b610c74565b5050565b5f60075f9054906101000a900460ff16905090565b5f6107de82610b9c565b9050919050565b5f5f73ffffffffffffffffffffffffffffffffffffffff168273ffffffffffffffffffffffffffffffffffffffff1603610856575f6040517f89c62b6400000000000000000000000000000000000000000000000000000000815260040161084d919061220a565b60405180910390fd5b60035f8373ffffffffffffffffffffffffffffffffffffffff1673ffffffffffffffffffffffffffffffffffffffff1681526020019081526020015f20549050919050565b7f65d7a28e3265b37a6474929f336521b332c1681b933f6cb9f3376673440d862a6108c581610c89565b6108cd610ed2565b50565b5f60085f8481526020019081526020015f205f015f8373ffffffffffffffffffffffffffffffffffffffff1673ffffffffffffffffffffffffffffffffffffffff1681526020019081526020015f205f9054906101000a900460ff16905092915050565b60606001805461094390612769565b80601f016020809104026020016040519081016040528092919081815260200182805461096f90612769565b80156109ba5780601f10610991576101008083540402835291602001916109ba565b820191905f5260205f20905b81548152906001019060200180831161099d57829003601f168201915b5050505050905090565b5f5f1b81565b6109dc6109d5610c5b565b8383610f34565b5050565b6109eb84848461059c565b6109ff6109f6610c5b565b8585858561110d565b50505050565b6060610a10826112b9565b9050919050565b5f5f60095f815480929190610a2b906127fb565b919050559050610a3b8482611335565b610a458184611352565b8091505092915050565b610a588261069b565b610a6181610c89565b610a6b8383610d87565b50505050565b7f65d7a28e3265b37a6474929f336521b332c1681b933f6cb9f3376673440d862a81565b5f60055f8473ffffffffffffffffffffffffffffffffffffffff1673ffffffffffffffffffffffffffffffffffffffff1681526020019081526020015f205f8373ffffffffffffffffffffffffffffffffffffffff1673ffffffffffffffffffffffffffffffffffffffff1681526020019081526020015f205f9054906101000a900460ff16905092915050565b5f7f7965db0b000000000000000000000000000000000000000000000000000000007bffffffffffffffffffffffffffffffffffffffffffffffffffffffff1916827bffffffffffffffffffffffffffffffffffffffffffffffffffffffff19161480610b955750610b94826113ac565b5b9050919050565b5f5f610ba78361140c565b90505f73ffffffffffffffffffffffffffffffffffffffff168173ffffffffffffffffffffffffffffffffffffffff1603610c1957826040517f7e273289000000000000000000000000000000000000000000000000000000008152600401610c1091906123d9565b60405180910390fd5b80915050919050565b5f60045f8381526020019081526020015f205f9054906101000a900473ffffffffffffffffffffffffffffffffffffffff169050919050565b5f33905090565b610c6f8383836001611445565b505050565b5f610c80848484611604565b90509392505050565b610c9a81610c95610c5b565b611621565b50565b5f610ca883836108d0565b610d7d57600160085f8581526020019081526020015f205f015f8473ffffffffffffffffffffffffffffffffffffffff1673ffffffffffffffffffffffffffffffffffffffff1681526020019081526020015f205f6101000a81548160ff021916908315150217905550610d1a610c5b565b73ffffffffffffffffffffffffffffffffffffffff168273ffffffffffffffffffffffffffffffffffffffff16847f2f8788117e7eff1d82e926ec794901d17c78024a50270940304540a733656f0d60405160405180910390a460019050610d81565b5f90505b92915050565b5f610d9283836108d0565b15610e67575f60085f8581526020019081526020015f205f015f8473ffffffffffffffffffffffffffffffffffffffff1673ffffffffffffffffffffffffffffffffffffffff1681526020019081526020015f205f6101000a81548160ff021916908315150217905550610e04610c5b565b73ffffffffffffffffffffffffffffffffffffffff168273ffffffffffffffffffffffffffffffffffffffff16847ff6391f5c32d9c69d2a47ea670b442974b53935d1edc7fd64eb21e047a839171b60405160405180910390a460019050610e6b565b5f90505b92915050565b610e79611672565b5f60075f6101000a81548160ff0219169083151502179055507f5db9ee0a495bf2e6ff9c91a7834c1ba4fdd244a5e8aa4e537bd38aeae4b073aa610ebb610c5b565b604051610ec8919061220a565b60405180910390a1565b610eda6116b2565b600160075f6101000a81548160ff0219169083151502179055507f62e78cea01bee320cd4e420270b5ea74000d11b0c9f74754ebdbfc544b05a258610f1d610c5b565b604051610f2a919061220a565b60405180910390a1565b5f73ffffffffffffffffffffffffffffffffffffffff168373ffffffffffffffffffffffffffffffffffffffff1603610fa4575f6040517fa9fbf51f000000000000000000000000000000000000000000000000000000008152600401610f9b919061220a565b60405180910390fd5b5f73ffffffffffffffffffffffffffffffffffffffff168273ffffffffffffffffffffffffffffffffffffffff160361101457816040517f5b08ba1800000000000000000000000000000000000000000000000000000000815260040161100b919061220a565b60405180910390fd5b8060055f8573ffffffffffffffffffffffffffffffffffffffff1673ffffffffffffffffffffffffffffffffffffffff1681526020019081526020015f205f8473ffffffffffffffffffffffffffffffffffffffff1673ffffffffffffffffffffffffffffffffffffffff1681526020019081526020015f205f6101000a81548160ff0219169083151502179055508173ffffffffffffffffffffffffffffffffffffffff168373ffffffffffffffffffffffffffffffffffffffff167f17307eab39ab6107e8899845ad3d59bd9653f200f220920489ca2b5937696c318360405161110091906120c4565b60405180910390a3505050565b5f8373ffffffffffffffffffffffffffffffffffffffff163b11156112b2578273ffffffffffffffffffffffffffffffffffffffff1663150b7a02868685856040518563ffffffff1660e01b815260040161116b9493929190612894565b6020604051808303815f875af19250505080156111a657506040513d601f19601f820116820180604052508101906111a391906128f2565b60015b611227573d805f81146111d4576040519150601f19603f3d011682016040523d82523d5f602084013e6111d9565b606091505b505f81510361121f57836040517f64a0ae92000000000000000000000000000000000000000000000000000000008152600401611216919061220a565b60405180910390fd5b805160208201fd5b63150b7a0260e01b7bffffffffffffffffffffffffffffffffffffffffffffffffffffffff1916817bffffffffffffffffffffffffffffffffffffffffffffffffffffffff1916146112b057836040517f64a0ae920000000000000000000000000000000000000000000000000000000081526004016112a7919061220a565b60405180910390fd5b505b5050505050565b60606112c482610b9c565b505f6112ce6116f3565b90505f6112da84611709565b90505f8251036112ee578092505050611330565b5f8151111561132257818160405160200161130a929190612957565b60405160208183030381529060405292505050611330565b61132b846117aa565b925050505b919050565b61134e828260405180602001604052805f815250611810565b5050565b8060065f8481526020019081526020015f2090816113709190612b1a565b507ff8e1a15aba9398e019f0b49df1a4fde98ee17ae345cb5f6b5e2c27f5033e8ce7826040516113a091906123d9565b60405180910390a15050565b5f634906490660e01b7bffffffffffffffffffffffffffffffffffffffffffffffffffffffff1916827bffffffffffffffffffffffffffffffffffffffffffffffffffffffff19161480611405575061140482611833565b5b9050919050565b5f60025f8381526020019081526020015f205f9054906101000a900473ffffffffffffffffffffffffffffffffffffffff169050919050565b808061147d57505f73ffffffffffffffffffffffffffffffffffffffff168273ffffffffffffffffffffffffffffffffffffffff1614155b156115af575f61148c84610b9c565b90505f73ffffffffffffffffffffffffffffffffffffffff168373ffffffffffffffffffffffffffffffffffffffff16141580156114f657508273ffffffffffffffffffffffffffffffffffffffff168173ffffffffffffffffffffffffffffffffffffffff1614155b801561150957506115078184610a95565b155b1561154b57826040517fa9fbf51f000000000000000000000000000000000000000000000000000000008152600401611542919061220a565b60405180910390fd5b81156115ad57838573ffffffffffffffffffffffffffffffffffffffff168273ffffffffffffffffffffffffffffffffffffffff167f8c5be1e5ebec7d5bd14f71427d1e84f3dd0314c0f7b2291e5b200ac8c7c3b92560405160405180910390a45b505b8360045f8581526020019081526020015f205f6101000a81548173ffffffffffffffffffffffffffffffffffffffff021916908373ffffffffffffffffffffffffffffffffffffffff16021790555050505050565b5f61160d6116b2565b611618848484611914565b90509392505050565b61162b82826108d0565b61166e5780826040517fe2517d3f000000000000000000000000000000000000000000000000000000008152600401611665929190612be9565b60405180910390fd5b5050565b61167a6107bf565b6116b0576040517f8dfc202b00000000000000000000000000000000000000000000000000000000815260040160405180910390fd5b565b6116ba6107bf565b156116f1576040517fd93c066500000000000000000000000000000000000000000000000000000000815260040160405180910390fd5b565b606060405180602001604052805f815250905090565b606060065f8381526020019081526020015f20805461172790612769565b80601f016020809104026020016040519081016040528092919081815260200182805461175390612769565b801561179e5780601f106117755761010080835404028352916020019161179e565b820191905f5260205f20905b81548152906001019060200180831161178157829003601f168201915b50505050509050919050565b60606117b582610b9c565b505f6117bf6116f3565b90505f8151116117dd5760405180602001604052805f815250611808565b806117e784611b1f565b6040516020016117f8929190612957565b6040516020818303038152906040525b915050919050565b61181a8383611be9565b61182e611825610c5b565b5f85858561110d565b505050565b5f7f80ac58cd000000000000000000000000000000000000000000000000000000007bffffffffffffffffffffffffffffffffffffffffffffffffffffffff1916827bffffffffffffffffffffffffffffffffffffffffffffffffffffffff191614806118fd57507f5b5e139f000000000000000000000000000000000000000000000000000000007bffffffffffffffffffffffffffffffffffffffffffffffffffffffff1916827bffffffffffffffffffffffffffffffffffffffffffffffffffffffff1916145b8061190d575061190c82611cdc565b5b9050919050565b5f5f61191f8461140c565b90505f73ffffffffffffffffffffffffffffffffffffffff168373ffffffffffffffffffffffffffffffffffffffff16146119605761195f818486611d45565b5b5f73ffffffffffffffffffffffffffffffffffffffff168173ffffffffffffffffffffffffffffffffffffffff16146119eb5761199f5f855f5f611445565b600160035f8373ffffffffffffffffffffffffffffffffffffffff1673ffffffffffffffffffffffffffffffffffffffff1681526020019081526020015f205f82825403925050819055505b5f73ffffffffffffffffffffffffffffffffffffffff168573ffffffffffffffffffffffffffffffffffffffff1614611a6a57600160035f8773ffffffffffffffffffffffffffffffffffffffff1673ffffffffffffffffffffffffffffffffffffffff1681526020019081526020015f205f82825401925050819055505b8460025f8681526020019081526020015f205f6101000a81548173ffffffffffffffffffffffffffffffffffffffff021916908373ffffffffffffffffffffffffffffffffffffffff160217905550838573ffffffffffffffffffffffffffffffffffffffff168273ffffffffffffffffffffffffffffffffffffffff167fddf252ad1be2c89b69c2b068fc378daa952ba7f163c4a11628f55a4df523b3ef60405160405180910390a4809150509392505050565b60605f6001611b2d84611e08565b0190505f8167ffffffffffffffff811115611b4b57611b4a612462565b5b6040519080825280601f01601f191660200182016040528015611b7d5781602001600182028036833780820191505090505b5090505f82602083010190505b600115611bde578080600190039150507f3031323334353637383961626364656600000000000000000000000000000000600a86061a8153600a8581611bd357611bd2612c10565b5b0494505f8503611b8a575b819350505050919050565b5f73ffffffffffffffffffffffffffffffffffffffff168273ffffffffffffffffffffffffffffffffffffffff1603611c59575f6040517f64a0ae92000000000000000000000000000000000000000000000000000000008152600401611c50919061220a565b60405180910390fd5b5f611c6583835f610c74565b90505f73ffffffffffffffffffffffffffffffffffffffff168173ffffffffffffffffffffffffffffffffffffffff1614611cd7575f6040517f73c6ac6e000000000000000000000000000000000000000000000000000000008152600401611cce919061220a565b60405180910390fd5b505050565b5f7f01ffc9a7000000000000000000000000000000000000000000000000000000007bffffffffffffffffffffffffffffffffffffffffffffffffffffffff1916827bffffffffffffffffffffffffffffffffffffffffffffffffffffffff1916149050919050565b611d50838383611f59565b611e03575f73ffffffffffffffffffffffffffffffffffffffff168373ffffffffffffffffffffffffffffffffffffffff1603611dc457806040517f7e273289000000000000000000000000000000000000000000000000000000008152600401611dbb91906123d9565b60405180910390fd5b81816040517f177e802f000000000000000000000000000000000000000000000000000000008152600401611dfa929190612c3d565b60405180910390fd5b505050565b5f5f5f90507a184f03e93ff9f4daa797ed6e38ed64bf6a1f0100000000000000008310611e64577a184f03e93ff9f4daa797ed6e38ed64bf6a1f0100000000000000008381611e5a57611e59612c10565b5b0492506040810190505b6d04ee2d6d415b85acef81000000008310611ea1576d04ee2d6d415b85acef81000000008381611e9757611e96612c10565b5b0492506020810190505b662386f26fc100008310611ed057662386f26fc100008381611ec657611ec5612c10565b5b0492506010810190505b6305f5e1008310611ef9576305f5e1008381611eef57611eee612c10565b5b0492506008810190505b6127108310611f1e576127108381611f1457611f13612c10565b5b0492506004810190505b60648310611f415760648381611f3757611f36612c10565b5b0492506002810190505b600a8310611f50576001810190505b80915050919050565b5f5f73ffffffffffffffffffffffffffffffffffffffff168373ffffffffffffffffffffffffffffffffffffffff161415801561201057508273ffffffffffffffffffffffffffffffffffffffff168473ffffffffffffffffffffffffffffffffffffffff161480611fd15750611fd08484610a95565b5b8061200f57508273ffffffffffffffffffffffffffffffffffffffff16611ff783610c22565b73ffffffffffffffffffffffffffffffffffffffff16145b5b90509392505050565b5f604051905090565b5f5ffd5b5f5ffd5b5f7fffffffff0000000000000000000000000000000000000000000000000000000082169050919050565b61205e8161202a565b8114612068575f5ffd5b50565b5f8135905061207981612055565b92915050565b5f6020828403121561209457612093612022565b5b5f6120a18482850161206b565b91505092915050565b5f8115159050919050565b6120be816120aa565b82525050565b5f6020820190506120d75f8301846120b5565b92915050565b5f81519050919050565b5f82825260208201905092915050565b8281835e5f83830152505050565b5f601f19601f8301169050919050565b5f61211f826120dd565b61212981856120e7565b93506121398185602086016120f7565b61214281612105565b840191505092915050565b5f6020820190508181035f8301526121658184612115565b905092915050565b5f819050919050565b61217f8161216d565b8114612189575f5ffd5b50565b5f8135905061219a81612176565b92915050565b5f602082840312156121b5576121b4612022565b5b5f6121c28482850161218c565b91505092915050565b5f73ffffffffffffffffffffffffffffffffffffffff82169050919050565b5f6121f4826121cb565b9050919050565b612204816121ea565b82525050565b5f60208201905061221d5f8301846121fb565b92915050565b61222c816121ea565b8114612236575f5ffd5b50565b5f8135905061224781612223565b92915050565b5f5f6040838503121561226357612262612022565b5b5f61227085828601612239565b92505060206122818582860161218c565b9150509250929050565b5f5f5f606084860312156122a2576122a1612022565b5b5f6122af86828701612239565b93505060206122c086828701612239565b92505060406122d18682870161218c565b9150509250925092565b5f819050919050565b6122ed816122db565b81146122f7575f5ffd5b50565b5f81359050612308816122e4565b92915050565b5f6020828403121561232357612322612022565b5b5f612330848285016122fa565b91505092915050565b612342816122db565b82525050565b5f60208201905061235b5f830184612339565b92915050565b5f5f6040838503121561237757612376612022565b5b5f612384858286016122fa565b925050602061239585828601612239565b9150509250929050565b5f602082840312156123b4576123b3612022565b5b5f6123c184828501612239565b91505092915050565b6123d38161216d565b82525050565b5f6020820190506123ec5f8301846123ca565b92915050565b6123fb816120aa565b8114612405575f5ffd5b50565b5f81359050612416816123f2565b92915050565b5f5f6040838503121561243257612431612022565b5b5f61243f85828601612239565b925050602061245085828601612408565b9150509250929050565b5f5ffd5b5f5ffd5b7f4e487b71000000000000000000000000000000000000000000000000000000005f52604160045260245ffd5b61249882612105565b810181811067ffffffffffffffff821117156124b7576124b6612462565b5b80604052505050565b5f6124c9612019565b90506124d5828261248f565b919050565b5f67ffffffffffffffff8211156124f4576124f3612462565b5b6124fd82612105565b9050602081019050919050565b828183375f83830152505050565b5f61252a612525846124da565b6124c0565b9050828152602081018484840111156125465761254561245e565b5b61255184828561250a565b509392505050565b5f82601f83011261256d5761256c61245a565b5b813561257d848260208601612518565b91505092915050565b5f5f5f5f6080858703121561259e5761259d612022565b5b5f6125ab87828801612239565b94505060206125bc87828801612239565b93505060406125cd8782880161218c565b925050606085013567ffffffffffffffff8111156125ee576125ed612026565b5b6125fa87828801612559565b91505092959194509250565b5f67ffffffffffffffff8211156126205761261f612462565b5b61262982612105565b9050602081019050919050565b5f61264861264384612606565b6124c0565b9050828152602081018484840111156126645761266361245e565b5b61266f84828561250a565b509392505050565b5f82601f83011261268b5761268a61245a565b5b813561269b848260208601612636565b91505092915050565b5f5f604083850312156126ba576126b9612022565b5b5f6126c785828601612239565b925050602083013567ffffffffffffffff8111156126e8576126e7612026565b5b6126f485828601612677565b9150509250929050565b5f5f6040838503121561271457612713612022565b5b5f61272185828601612239565b925050602061273285828601612239565b9150509250929050565b7f4e487b71000000000000000000000000000000000000000000000000000000005f52602260045260245ffd5b5f600282049050600182168061278057607f821691505b6020821081036127935761279261273c565b5b50919050565b5f6060820190506127ac5f8301866121fb565b6127b960208301856123ca565b6127c660408301846121fb565b949350505050565b7f4e487b71000000000000000000000000000000000000000000000000000000005f52601160045260245ffd5b5f6128058261216d565b91507fffffffffffffffffffffffffffffffffffffffffffffffffffffffffffffffff8203612837576128366127ce565b5b600182019050919050565b5f81519050919050565b5f82825260208201905092915050565b5f61286682612842565b612870818561284c565b93506128808185602086016120f7565b61288981612105565b840191505092915050565b5f6080820190506128a75f8301876121fb565b6128b460208301866121fb565b6128c160408301856123ca565b81810360608301526128d3818461285c565b905095945050505050565b5f815190506128ec81612055565b92915050565b5f6020828403121561290757612906612022565b5b5f612914848285016128de565b91505092915050565b5f81905092915050565b5f612931826120dd565b61293b818561291d565b935061294b8185602086016120f7565b80840191505092915050565b5f6129628285612927565b915061296e8284612927565b91508190509392505050565b5f819050815f5260205f209050919050565b5f6020601f8301049050919050565b5f82821b905092915050565b5f600883026129d67fffffffffffffffffffffffffffffffffffffffffffffffffffffffffffffffff8261299b565b6129e0868361299b565b95508019841693508086168417925050509392505050565b5f819050919050565b5f612a1b612a16612a118461216d565b6129f8565b61216d565b9050919050565b5f819050919050565b612a3483612a01565b612a48612a4082612a22565b8484546129a7565b825550505050565b5f5f905090565b612a5f612a50565b612a6a818484612a2b565b505050565b5b81811015612a8d57612a825f82612a57565b600181019050612a70565b5050565b601f821115612ad257612aa38161297a565b612aac8461298c565b81016020851015612abb578190505b612acf612ac78561298c565b830182612a6f565b50505b505050565b5f82821c905092915050565b5f612af25f1984600802612ad7565b1980831691505092915050565b5f612b0a8383612ae3565b9150826002028217905092915050565b612b23826120dd565b67ffffffffffffffff811115612b3c57612b3b612462565b5b612b468254612769565b612b51828285612a91565b5f60209050601f831160018114612b82575f8415612b70578287015190505b612b7a8582612aff565b865550612be1565b601f198416612b908661297a565b5f5b82811015612bb757848901518255600182019150602085019450602081019050612b92565b86831015612bd45784890151612bd0601f891682612ae3565b8355505b6001600288020188555050505b505050505050565b5f604082019050612bfc5f8301856121fb565b612c096020830184612339565b9392505050565b7f4e487b71000000000000000000000000000000000000000000000000000000005f52601260045260245ffd5b5f604082019050612c505f8301856121fb565b612c5d60208301846123ca565b939250505056fea264697066735822122011c63e225a9c7ca3a1c22b18fb38cb71f12c7fff5a397cd3bd3a2b21cf7c29f164736f6c634300081b0033",
  "linkReferences": {},
  "deployedLinkReferences": {}
}